:020000040800F2
:10000000880A002031020008E1060008890600087D
:10001000DD06000869050008FF0B0008000000006D
:10002000000000000000000000000000990100082E
:100030006D05000800000000DD0100086D090008E2
:100040004B0200084B0200084B0200084B0200085C
:100050004B0200084B0200084B0200084B0200084C
:100060004B0200084B0200084B0200084B0200083C
:100070004B0200084B0200084B0200084B0200082C
:100080004B0200084B0200084B0200084B0200081C
:100090004B0200084B0200084B0200084B0200080C
:1000A0004B0200084B0200084B0200084B020008FC
:1000B0004B0200084B0200084B0200084B020008EC
:1000C0004B0200084B0200084B0200084B020008DC
:1000D0004B020008DD0900084B0200084B02000833
:1000E0004B0200084B0200084B02000800F002F827
:1000F00000F042F80AA090E8000C82448344AAF180
:100100000107DA4501D100F037F8AFF2090EBAE87D
:100110000F0013F0010F18BFFB1A43F0010318473B
:100120000413000024130000103A24BF78C878C1DB
:10013000FAD8520724BF30C830C144BF04680C60ED
:10014000704700000023002400250026103A28BF35
:1001500078C1FBD8520728BF30C148BF0B60704739
:10016000642900F0F180732900F0B281002070470B
:100170001FB51FBD10B510BD00F0C4F91146FFF743
:10018000F7FF00F0C1FD00F0E2F903B4FFF7F2FF62
:1001900003BC00F036FD0000224B19680868B0E887
:1001A000F00F80F30988BFF36F8F4FF0000080F3EA
:1001B00011884EF00D0E70470000000006480068E0
:1001C000006880F3088862B661B6BFF34F8FBFF353
:1001D0006F8F00DF00BF00BF08ED00E0EFF3098084
:1001E000BFF36F8F0F4B1A6820E9F00F106008B54E
:1001F0004FF0500080F31188BFF34F8FBFF36F8F24
:1002000000F052FF4FF0000080F31188BDE8084075
:1002100019680868B0E8F00F80F30988BFF36F8FA2
:10022000704700BF34000020EFF3058070470000E6
:100230000948804709480047FEE7FEE7FEE7FEE77A
:10024000FEE7FEE7FEE7FEE7FEE7FEE704480549B6
:10025000054A064B704700007D090008ED000008C4
:1002600088040020880A00208806002088060020D4
:10027000704700000FB4044910B503AA029800F0BB
:100280002BF910BC5DF814FB180000202DE9F0419B
:100290000E460446002020622046E168884730B3BD
:1002A000252805D0D4E901219047206A401CF2E7B7
:1002B000E168204600278847050018D0A5F14100D5
:1002C000192802D820354FF40067324629462046C7
:1002D0002760FFF745FF40B1012804D0F61D26F046
:1002E00007060836D8E7361DD6E72846DAE7206A3B
:1002F000BDE8F08170B50C460546012A05D0287886
:10030000800600D5EA69002302E0012305E05B1CBA
:10031000934202D2E05C0028F9D1A869E618C01A1D
:10032000A861286A184428622846AFF3008004E0D8
:10033000D5E9012114F8010B9047B442F8D32846BF
:10034000AFF3008070BD00002DE9F04106460024A7
:1003500010687529314616A510D0AFF3008000282B
:1003600002DA404213A507E031688A0701D512A5D9
:1003700002E0490704D511A5012401E0AFF3008094
:1003800000210A2206F1240709E0B0FBF2FCB0FBD1
:10039000F2F302FB1C00303078541846491C002848
:1003A000F3D123462A463046BDE8F04100F00CB8B0
:1003B000000000002D0000002B00000020000000C5
:1003C00070477047704770472DE9F0470D469946D2
:1003D0009246044600F124080168880604D5E069C5
:1003E00021F01001216000E00120A84201DD471B3F
:1003F00000E00027A1697A1902EB0900081AA06140
:100400002078C00602D42046AFF30080002608E022
:10041000D4E901211AF806009047206A401C761C96
:1004200020624E45F4DB2078C0060AD52046AFF3A3
:10043000008006E0D4E9012130209047206A401C6A
:100440002062381EA7F10107F4DC07E0D4E901219E
:1004500018F805009047206A401C2062281EA5F16C
:100460000105F3DC2046AFF300802078000602D5BA
:100470000220BDE8F0870120FBE7000001694A1C6B
:1004800002610878704700B58FB0CDE901310021D5
:10049000059105497944CDE9031011466846FFF7F7
:1004A000F5FE0FB000BD0000E5FFFFFF10B543698A
:1004B00013B1AFF3008001E0FFF71CFF012010BD76
:1004C000127800F124010A7000224A700122EDE73F
:1004D00011684FF0FF32E9E7074B70B50D467B44DA
:1004E000FFF7D1FF0446284600F008F810B14FF09E
:1004F000FF3070BD204670BD0B080000007B00F08F
:1005000080007047754600F02BF8AE46050069463E
:10051000534620F00700854618B020B5FFF796FE39
:10052000BDE820404FF000064FF000074FF00008F4
:100530004FF0000B21F00701AC46ACE8C009ACE875
:10054000C009ACE8C009ACE8C0098D46704710B5D9
:100550000446AFF300802046BDE81040FFF715BE0B
:10056000004870472804002000BFFEE770472DE9CF
:10057000F041024600250026002000230024002729
:1005800091F803C00CF00F0591F803C00CF0100CAB
:10059000BCF1000F03D091F802C04CEA050591F8B8
:1005A00000C0BCF1000F31D0146800202BE04FF0E8
:1005B000010C0CFA00F3B1F800C00CEA03069E42ED
:1005C00020D183004FF00F0C0CFA03F7BC4305FA5F
:1005D00003FC4CEA040491F803C0BCF1280F06D1D7
:1005E0004FF0010C0CFA00FCC2F814C00AE091F8BC
:1005F00003C0BCF1480F05D14FF0010C0CFA00FC10
:10060000C2F810C0401C0828D1D31460B1F800C053
:10061000BCF1FF0F34DD546800202EE000F1080C1F
:100620004FF0010808FA0CF3B1F800C00CEA030619
:100630009E4221D183004FF00F0C0CFA03F7BC430C
:1006400005FA03FC4CEA040491F803C0BCF1280F3E
:1006500005D100F1080C08FA0CF8C2F8148091F8E2
:1006600003C0BCF1480F07D100F1080C4FF001089E
:1006700008FA0CF8C2F81080401C0828CED3546049
:10068000BDE8F0810161704700BFFEE708B50121B8
:10069000242000F069F84FF48070ADF800001020BD
:1006A0008DF8030003208DF8020069460948FFF722
:1006B0005EFF4FF480710748FFF7E4FF0420ADF8B8
:1006C000000069460448FFF752FF04210248FFF783
:1006D000D9FF08BD000801400014014000BFFEE73B
:1006E0007047000070B5002100230F22C47804B3C6
:1006F000154C246804F4E064C4F5E064210AC1F1F7
:100700000403CA40447804FA03F184781440214376
:1007100009010E4C0678A155047804F01F05012448
:10072000AC4005786D11AD0005F1E025C5F800413C
:1007300009E0047804F01F050124AC40044D06785C
:10074000761145F8264070BD0CED00E000E400E0B5
:1007500080E100E002490143024A11607047000055
:100760000000FA050CED00E029B1064A9269024347
:10077000044B9A6104E0034A92698243014B9A61F7
:10078000704700000010024030B500210022002414
:1007900000232D4D6D6805F00C0121B1042905D011
:1007A000082923D105E0294D056022E0274D056089
:1007B0001FE0254D6D6805F47012234D6D6805F43A
:1007C0008034022505EB92421CB9214D554305604A
:1007D0000BE01D4D6D6805F400351DB11C4D5543F2
:1007E000056002E0194D5543056002E0174D0560B4
:1007F00000BF00BF144D6D6805F0F0010909154DEB
:100800006B5C0568DD4045600F4D6D6805F4E06187
:10081000090A104D6B5C4568DD4085600A4D6D68C6
:1008200005F46051C90A0B4D6B5C4568DD40C5603D
:10083000054D6D6805F44041890B074D6B5CC5683B
:10084000B5FBF3F5056130BD0010024000127A00DF
:1008500000093D001E0000202E00002010B500F011
:1008600001F810BD0CB500200190009033480068DD
:1008700040F480303149086000BF3048006800F41F
:10088000003000900198401C0190009818B9019820
:10089000B0F5A06FF1D12948006800F4003010B124
:1008A0000120009001E0002000900098012843D131
:1008B0002348006840F0100021490860084600689D
:1008C00020F0030008600846006840F0020008605D
:1008D0001A48406819494860084640684860084618
:1008E000406840F4806048600846406820F47C100E
:1008F00048600846406840F4E810486008460068D0
:1009000040F08070086000BF0C48006800F0007084
:100910000028F9D00948406820F0030007494860E2
:100920000846406840F00200486000BF0348406845
:1009300000F00C000828F9D10CBD000000100240A6
:1009400000200240042808D14FF0E021096941F05D
:1009500004014FF0E022116107E04FF0E021096946
:1009600021F004014FF0E0221161704710B500F052
:1009700009FC012801D000F0EBFB10BD10B51348B5
:10098000006840F0010011490860084640681049BD
:1009900008400E494860084600680E4908400B4967
:1009A00008600846006820F4802008600846406817
:1009B00020F4FE0048604FF41F008860FFF74EFFF0
:1009C0004FF000600449086010BD000000100240B4
:1009D0000000FFF8FFFFF6FE08ED00E010B540F262
:1009E00025511D4800F04AF810B31B4800F002F9E9
:1009F000C4B21A48008800F40040C8B917480088FB
:100A000000F4804060B10A2C03D000201349088014
:100A100020E01248008840F400401049088019E0A6
:100A20000D2C06D10D48008840F480400B49088009
:100A300010E00A480088C0F30D0009490C5407482B
:100A40000088401C0549088008460088C72801DD49
:100A50000020088010BD0000003801401C0000206C
:100A60007C00002021B1828942F40052828104E09E
:100A700082894DF6FF731A408281704770B5024635
:100A8000002400230025002040F66A16B14200D160
:100A900000BFC1F3421501F01F03012606FA03F35C
:100AA000012D02D19689334006E0022D02D1168A2B
:100AB000334001E0968A33400C12012606FA04F412
:100AC0001688344013B10CB1012000E0002070BD45
:100AD000F0B50346002400260025002040F66A17E2
:100AE000B94200D100BF1846C1F3421401F01F06FD
:100AF000012707FA06F5012C01D10C3004E0022C85
:100B000001D1103000E014301AB107682F4307609C
:100B100002E00768AF430760F0BD00002DE9F04731
:100B200086B005460E460024A24600BFA146002717
:100B3000B08900B100BF2F462C8A4CF6FF700440EC
:100B4000F08804432C82AC894EF6F3100440B08840
:100B500031890843718908430443AC81AC8A4FF65C
:100B6000FF400440B0890443AC8201A8FFF70CFEAB
:100B70001F48874202D1DDF810A001E0DDF80CA08B
:100B8000A88900F4004040B10AEBCA0000EB0A104B
:100B900031684900B0FBF1F807E00AEBCA0000EB4E
:100BA0000A1031688900B0FBF1F86420B8FBF0F05E
:100BB00004012009642101FB1089A88900F4004088
:100BC00040B1322000EBC900B0FBF1F000F00700AB
:100BD000044308E0322000EB09106421B0FBF1F07F
:100BE00000F00F0004432C8106B0BDE8F087000040
:100BF0000038014001468888C0F30800704700BFF4
:100C0000FEE700BF7047000010B50420FFF79AFE12
:100C1000104800681049B0FBF1F0104908700D4809
:100C200000680D49B0FBF1F44FF47A7044430120A1
:100C30000B4908804FF0E020006940F002004FF0BF
:100C4000E021086108464461006940F00100086144
:100C500010BD00000000002040420F0014000020E2
:100C60001600002070B5044600F08CFA012810D060
:100C70000B480088844206D309480088B4FBF0F58D
:100C8000284600F0CFF906480088B4FBF0F100FBDD
:100C900011444FF47A7104FB01F000F003F870BDC9
:100CA0001600002070B5034600224FF0E02675695B
:100CB0000D4E367803FB06F44FF0E026B16910E0E4
:100CC0004FF0E026B06988420BD0884202D20E1A5B
:100CD000324402E02E1A0E4432440146A24200D3AE
:100CE00000E0EDE700BF70BD1400002000BF054A22
:100CF000128802F04002002AF9D0C2B2014B1B1D3B
:100D00001A807047003801404FF44070FFF722FD11
:100D1000FFF77AFF4FF4E13000F07EF8FFF7B6FC02
:100D20000EE00120074908604FF49670FFF79AFF24
:100D300000200549C1F888014FF49670FFF792FF33
:100D4000EFE7000088812242008022422DE9F04135
:100D500005460E461C4807681C480068001D00F048
:100D6000ABF850B91948006890F82C100120884061
:100D700017490968814316480160681C38B936B1C3
:100D800012480168091D134800F0C4F81AE07C19E4
:100D90000E4800684460BC4207D20C480168091D37
:100DA0000D48006800F09CF80CE008480168091D37
:100DB0000A48006800F094F809480068844201D2AB
:100DC00007480460BDE8F08148000020340000209E
:100DD0004C000020140400203C00002038000020BB
:100DE000640000200A490968096809B9012100E086
:100DF000002121B14FF0FF31064A116006E004499D
:100E00000968C968C868034A4168116070470000F2
:100E1000380000206400002010B586B0044601218F
:100E200044F20400FFF7A0FC4FF40070ADF814008A
:100E300003208DF8160018208DF8170005A91C480E
:100E4000FFF795FB4FF48060ADF8140004208DF897
:100E5000170005A91648FFF78AFB25208DF800002A
:100E600003208DF801008DF8020001208DF80300A9
:100E70006846FFF737FC01940020ADF80800ADF894
:100E80000A00ADF80C00ADF810000C20ADF80E0013
:100E900001A90848FFF742FE012240F2255105480A
:100EA000FFF716FE01210348FFF7DCFD06B010BD79
:100EB000000801400038014001460A69D1E90130CB
:100EC0009860D1E9010358605068884201D1886870
:100ED0005060002008611068401E10601068704764
:100EE00010B502460B685C1C0CB9106907E002F1F2
:100EF000080000E04068446824689C42FAD94468CD
:100F00004C604C68A160886041600A611468641C90
:100F1000146010BD42684A6093688B6093685960A2
:100F20009160086103685B1C0360704710B500BFE7
:100F3000502080F31188BFF34F8FBFF36F8F00BF36
:100F40000B480068401C0A490860084600680128F0
:100F50000DD108480068C0B208B9012000E00020A7
:100F600028B94FF4BD7204A10EA0FFF783F910BD9C
:100F70007000002004ED00E02E2E5C467265655284
:100F8000544F535C706F727461626C655C5256446E
:100F9000535C41524D5F434D335C706F72742E63EE
:100FA000000000004572726F723A25732C25640DA3
:100FB0000A00000010B50B48006828B940F2811201
:100FC00009A114A0FFF756F906480068401E05491C
:100FD00008600846006820B9002080F3118800BF2F
:100FE00000BF10BD700000202E2E5C467265655259
:100FF000544F535C706F727461626C655C525644FE
:10100000535C41524D5F434D335C706F72742E637D
:10101000000000004572726F723A25732C25640D32
:101020000A00000070B504460025ACB10F48006806
:1010300008B9012000E0002028B940F2CF420CA1FD
:1010400010A0FFF717F900F027F800212046FFF75E
:101050007DFE00F057F905463DB94FF080500D492F
:101060000860BFF34F8FBFF36F8F70BD6C0000201F
:101070002E2E5C4672656552544F535C7461736BDF
:10108000732E63004572726F723A25732C25640DBE
:101090000A00000004ED00E002480068401C01491D
:1010A000086070476C00002010B51B48006818B13C
:1010B00001201A4908602DE00020184908601848EE
:1010C0000068B0FA80F0C0F11F0404EB84001549F9
:1010D00051F8200008B1012000E0002028B940F6B6
:1010E000F62211A115A0FFF7C5F804EB84010D4A03
:1010F00002EB810041684968416000F108014268E3
:101100008A4202D14168496841604168C9680F4A12
:10111000116000BF10BD00006C00002058000020CE
:101120004C000020440100202E2E5C467265655262
:10113000544F535C7461736B732E63004572726F0E
:10114000723A25732C25640D0A000000340000203B
:1011500010B500BF502080F31188BFF34F8FBFF34D
:101160006F8F00BF00F01EF818B14FF08050044997
:10117000086000BF002080F3118800BF10BD000090
:1011800004ED00E00549096809B9012005E00449BA
:10119000096809B9022000E00020704750000020D3
:1011A0006C0000202DE9F0414FF000084148006834
:1011B000002872D140480068451C3F480560EDB9E1
:1011C0003E480068006808B9012000E0002028B906
:1011D00040F6D9123AA13FA0FFF74CF8374807680C
:1011E00040480068354908603E4807603E4800684E
:1011F000401C3D490860FFF7F5FD00BF3B48006813
:1012000085423CD300BF2D480068006808B9012022
:1012100000E0002020B14FF0FF30344908602DE09D
:1012200026480068C068C4686668B54202D22F4884
:10123000066023E0201DFFF73FFEA06A18B104F10D
:101240001800FFF739FE94F82C1001208840284937
:101250000968084326490860E16A01EB8101254AD3
:1012600002EB8100211DFFF755FE2349E06A096862
:10127000C96A8842C7D34FF00108C4E700BF1E48BF
:101280000068C06A00EB80001A4951F8200001286C
:1012900001D94FF0010805E0FFE718480068401C3D
:1012A000164908601648006808B14FF0010840462A
:1012B000BDE8F0816C0000204800002038000020CC
:1012C0002E2E5C4672656552544F535C7461736B8D
:1012D000732E63004572726F723A25732C25640D6C
:1012E0000A0000003C0000205C0000206400002098
:1012F0004C00002044010020340000205400002055
:101300005800002070B5002400263448006828B931
:101310004FF4FD6232A137A0FEF7ACFFFFF706FEE7
:101320002E480068401E2D490860084600680028C5
:101330004FD13448006800284BD024E03248C068C0
:10134000C46804F11800FFF7B7FD201DFFF7B4FDD6
:1013500094F82C10012088402C49096808432B4937
:101360000860E16A01EB8101294A02EB8100211D3D
:10137000FFF7D0FD2749E06A0968C96A884202D3AD
:101380000120254908602048006808B9012000E0D4
:1013900000200028D2D00CB1FFF724FD1F480568BB
:1013A00065B100BFFFF7FEFE10B101201A490860C9
:1013B0006D1E002DF6D100201849086016480068FF
:1013C00038B10126300716490860BFF34F8FBFF3CD
:1013D0006F8FFFF7EFFD304670BD00006C000020FE
:1013E0002E2E5C4672656552544F535C7461736B6C
:1013F000732E63004572726F723A25732C25640D4B
:101400000A00000044000020EC0300204C000020F3
:101410004401002034000020580000205400002027
:1014200004ED00E044140008000000207C000000EF
:1014300028010008C01400087C0000200C0A0000ED
:101440004401000800A24A0400000000000000005F
:101450000102030406070809000000000000000064
:10146000000000000000010203040102030406075B
:101470000809020406080000000000000000000047
:10148000000000000000000000000000000000005C
:10149000000000000000000000000000000000004C
:1014A000000000000000000000000000000000003C
:1014B00000000000AAAAAAAA000000000000000084
:04000005080000ED02
:00000001FF
